:04000000CFEF0AF044
:1008000000A086010080250000437269737469614D
:100810006E204A756C69616E004453313330372B5A
:100820004144533131313500204D494552434F4CFD
:1008300045530020444F4D494E474F0020564945EF
:10084000524E4553002053414241444F00204D41F8
:100850005254455300204A554556455300204C55A7
:100860004E4553004D454E5500534142004D4945BC
:1008700000564945004A55450020414D00444F4D22
:100880000020504D006C554E004D4152000D0A00A5
:010890000067
:100892006CD9020E056E8AEC09F003C02DF004C07B
:1008A2002EF02DC007F02EC008F059EC09F007C059
:1008B2002DF008C02EF059D9010E056E8AEC09F010
:1008C20003C02FF004C030F02FC007F030C008F092
:1008D20059EC09F007C02FF008C030F046D9056A7C
:1008E2008AEC09F003C031F004C032F031C007F0E5
:1008F20032C008F059EC09F007C031F008C032F0FC
:1009020034D9050E056E8AEC09F003C027F004C045
:1009120028F027C007F028C008F059EC09F007C0FA
:1009220027F008C028F021D9040E056E8AEC09F0E0
:1009320003C029F004C02AF029C007F02AC008F039
:1009420059EC09F007C029F008C02AF00ED9060EAA
:10095200056E8AEC09F003C025F004C026F025C01C
:1009620007F026C008F059EC09F007C025F008C0CE
:1009720026F0FBD8030E056E8AEC09F003C02BF0BB
:1009820004C02CF02BC007F02CC008F059EC09F081
:1009920007C02BF008C02CF02D502E1006E1790E66
:1009A200EDD8000E2E6E0C0E2D6E2E5003E10D0EA4
:1009B2002D5C06E3F40E2D26FF0E2E22810E01D0B1
:1009C200790EDCD8046A0A0E036E2DC001F02EC027
:1009D20002F00CEC0AF0C1D853EC0AF00850300FC8
:1009E2003A6E2DC008F02EC009F0C4D853EC0AF0BC
:1009F2000850300F3B6E3A0ECCD82FC001F030C0F9
:100A020002F00CEC0AF0A9D853EC0AF00850300FAF
:100A12003D6E2FC008F030C009F0ACD853EC0AF09C
:100A22000850300F3E6E3A0E3F6E046A0A0E036E95
:100A320031C001F032C002F00CEC0AF08ED853EC57
:100A42000AF00850300F406E31C008F032C009F091
:100A520091D853EC0AF00850300F416E426A436A53
:100A62009DD8E5EC09F037C002F038C003F0E5ECA0
:100A720009F08D0E5FEC08F0E5EC09F085D8010E67
:100A8200ABEC08F00A0E046E37C005F038C006F071
:100A9200010EABEC08F0046A0A0E036E29C001F0E5
:100AA2002AC002F00CEC0AF058D853EC0AF00850B5
:100AB200300F3A6E29C008F02AC009F05BD853EC17
:100AC2000AF00850300F3B6E2F0E63D827C001F09A
:100AD20028C002F00CEC0AF040D853EC0AF008509F
:100AE200300F3D6E27C008F028C009F043D853EC00
:100AF2000AF00850300F3E6E2F0E3F6E320E406EDF
:100B0200300E416E046A0A0E036E25C001F026C043
:100B120002F00CEC0AF021D853EC0AF00850300F26
:100B2200426E25C008F026C009F024D853EC0AF022
:100B32000850300F436E32D8E5EC09F02BC009F0B3
:100B42002CC00AF00BEC08F08D0E5FEC08F0E5EC1F
:100B520009F01AD8020EABEF08F001C008F002C08B
:100B620009F00B6A0A0E0A6E0A0C046AD10E036EB1
:100B7200066AD10C0B6A0A0E0A6E0A0C376E3750DF
:100B8200D8A4080E386E1200046A3A0E056E066A80
:100B920012003C6E046A0A0E036E0A0C3A0E026ED2
:100BA200036A1200959E959C959A959895969594B0
:100BB200839E839C839A8398839683941D0E046EEE
:100BC200910EE82EFED7042EFCD700F01D0E046E07
:100BD200910EE82EFED7042EFCD700F01D0E046EF7
:100BE200910EE82EFED7042EFCD700F01D0E046EE7
:100BF200910EE82EFED7042EFCD700F01D0E046ED7
:100C0200910EE82EFED7042EFCD700F01D0E046EC6
:100C1200910EE82EFED7042EFCD700F0010E056ED1
:100C22003ED8839683943BD883868394060EE82E1F
:100C3200FED700D034D8839683941D0E046E910E95
:100C4200E82EFED7042EFCD700F0052A030E056419
:100C5200E7D720D8839683941DD883868394060E83
:100C6200E82EFED700D016D8839683941D0E046E0C
:100C7200910EE82EFED7042EFCD700F0280ED1EC00
:100C820006F0100ED1EC06F0010ED1EC06F00F0EBC
:100C9200D1EF06F0839E839C838A83981200839E01
:100CA200839C838A83881200036E83968384016AFD
:100CB20003AE01D0012A010E5ED851D8060E026E93
:100CC200D8900132022EFCD7010E3DD8050E026EDD
:100CD200D8900132022EFCD7010E46D840D8013AF4
:100CE2000F0E01164FD8030EE82EFED700F08386B2
:100CF200060EE82EFED700D0839603C001F0D890EE
:100D0200013249D838D82BD846D81DD8D8900132CC
:100D1200010E2AD824D836D8030EE82EFED700F0CA
:100D22008386060EE82EFED700D08396060EE82EA6
:100D3200FED700D01D0E016E910EE82EFED7012EB9
:100D4200FCD700F012000116013A01460146835019
:100D52000118BF0B0118836E03C001F012000118C5
:100D6200836E03C001F012000116013A014683505E
:100D72000118DF0B120001160132013283500118F3
:100D82007F0B1200010E0116013A83500118EF0B7E
:100D92000118836E1200D8900132D8900132010CF2
:100DA200036E83968394016A03AE01D0012A010E79
:100DB20053D84DD8060E026ED8900132022EFCD7BF
:100DC200010E39D8050E026ED8900132022EFCD7E0
:100DD200010E49D83CD8013A0F0E01164BD8030E2A
:100DE200E82EFED700F08386060EE82EFED700D04E
:100DF200839603C001F0D890013245D82DD827D868
:100E020042D819D8D8900132010E2DD820D832D824
:100E1200030EE82EFED700F08386060EE82EFED7DC
:100E220000D083961D0E016E910EE82EFED7012E84
:100E3200FCD700F012000116013A01460146835028
:100E42000118BF0B0118836E03C001F012000118D4
:100E5200836E03C001F01200011601320132835089
:100E620001187F0B12000116013A01468350011846
:100E7200DF0B1200010E0116013A83500118EF0B2D
:100E82000118836E1200D8900132D8900132010C01
:100E9200070EB46EC1689582800E016E080EB5EC25
:100EA2000AF0270EC86EE3EC0AF0C580C5B0FED783
:100EB200026A670E016E1C0EB8EC09F0D3EC05F065
:100EC200010ED1EC06F00C0ED1EC06F0186A176A8E
:100ED2001A6A2F0E196E1C6A130E1B6E1E6A070EFB
:100EE2001D6E206A120E1F6E226A080E216E246A7F
:100EF200120E236EAEEC07F010D0000E046E190E27
:100F020026D8010EABEC08F0000E046E090E1FD8B5
:100F1200020EABEC08F072EC0AF0355036100AE122
:100F2200ECD7000E046E640E12D8010EABEC08F082
:100F320072EC0AF03504361005E1F3D749EC04F0FF
:100F420072EC0AF0020E35183610E7E1F7D7056E9B
:100F52000550D8A4080E066E120052D8136A17C0A4
:100F620009F018C00AF065EC08F04FD88CEC0AF0D2
:100F720047D8010E136E19C009F01AC00AF065ECC9
:100F820008F043D88CEC0AF03BD8020E136E1BC05B
:100F920009F01CC00AF065EC08F037D88CEC0AF0B6
:100FA2002FD8030E136E1DC009F01EC00AF065ECA7
:100FB20008F02BD88CEC0AF023D8040E136E1FC055
:100FC20009F020C00AF065EC08F01FD88CEC0AF09A
:100FD20017D8050E136E21C009F022C00AF065EC85
:100FE20008F013D88CEC0AF00BD8060E136E23C04F
:100FF20009F024C00AF065EC08F007D88CEF0AF07B
:10100200126AD00E116E146AD00C09C015F00AC013
:1010120016F012003CD0330E51D8E5EC09F00B0E5D
:10102200046E7D0E2FD05D0E49D8E5EC09F00B0E53
:10103200046E850E27D04D0E41D8E5EC09F00B0E5B
:10104200046E890E1FD0280E39D8E5EC09F00B0E7C
:10105200046E6D0E17D0550E31D8E5EC09F00B0E6B
:10106200046E750E0FD03C0E29D8E5EC09F00B0E7C
:10107200046E710E07D0450E21D8E5EC09F00B0E77
:10108200046E690EA8EC07F0020EABEF08F009C07F
:101092000BF00AC00CF00C50D8A412000B50010A3D
:1010A200BAE0030AC0E0010AC6E0070ACCE0010A7E
:1010B200D2E0030AD8E0010ADEE01200026E02501A
:1010C200D8A4080E036E12003DD825EC09F001C029
:1010D2000DF002C00EF00F0E0D160E6A09C001F0DF
:1010E2000AC002F0046A0A0E036EE9EC08F001C0BD
:1010F20009F002C00AF026D825EC09F001C00FF071
:1011020002C010F00F0E0F16106A0FC00BF010C0C5
:101112000CF00B3A0C3AF00E0C160B500F0B0C1293
:10112200F00E0B160BC00FF00CC010F00F16106A69
:101132000F500D1210500E100E6E0DC009F00EC0A1
:101142000AF0120009C001F00AC002F0046A0A0E95
:10115200036E0A0C076E0DD00450800F08D00450A5
:10116200C00F05D00450940F02D00450D40F086E63
:1011720009D00750010AF0E0030AF1E0010AF2E0A7
:10118200070AF3E00850D1EC06F00BD01AD8F76446
:1011920003D00800F55001D00ED855EC06F0054AF0
:1011A200062A0FD8F76403D00800F55001D003D8FF
:1011B2000009ECE11200F6CFD9FFF7CFDAFFDF50DA
:1011C200120005C0F6FF06C0F7FFF86A070E12000C
:1011D200066A04AE06D0036C041ED8B0042A010EBF
:1011E200066E02AE06D0016C021ED8B0022A010EB3
:1011F200061A076A086A035004101BE0010E056E06
:1012020004D0D89003360436052A04AEFAD7D89013
:10121200073608360350015C0450025805E30350B8
:10122200015E0450025A0780D89004320332052E20
:10123200EED7065004E0076C081ED8B0082A07C093
:1012420001F008C002F01200066A02AE06D0016C7C
:10125200021ED8B0022A010E066E04AE04D0036C40
:10126200041ED8B0042A0350041017E0010E056EC4
:1012720004D0D89003360436052A04AEFAD70350B8
:10128200015C0450025804E30350015E0450025A08
:10129200D89004320332052EF2D7065004E0016CD6
:1012A200021ED8B0022A01C001F002C002F01200F0
:1012B2000F0E07140E6E0F6A0EC00CF00FC00DF069
:1012C200F00E0716086A07C009F008C00AF0040EFB
:1012D2000B6E0A340A3209320B2EFBD709C00EF00C
:1012E2000AC00FF00F0E0E160F6A0EC001F00FC0EB
:1012F20002F0046A0A0E036EA2EC0AF00C500124FA
:101302000C6E0D5002200D6E0CC007F00DC008F0DF
:101312001200C580C5B0FED7E3EC0AF0030431EC3D
:101322000AF0E3EC0AF0055031EC0AF0E3EC0AF0C3
:10133200C584C5B4FED7C582C5B2FED7E3EC0AF0B8
:10134200035031EC0AF0E3EC0AF0C2EC0AF0076E4B
:10135200E3EC0AF0C58AC588C5B8FED7E3EC0AF00B
:10136200C584C5B4FED707C003F0046A1200036E39
:10137200AC6AAB6A03B0AC8803A202D0AC8CAB8C73
:1013820003B4AC8E03A602D0AB8801D0AB8A03B8FB
:10139200AC849E9803BAAB8603AC02D09D8A01D07E
:1013A2009D9A9E9A03AE02D09D8801D09D9801C05D
:1013B200AFFF02C0B0FFAC8AAB8E949C948EACB8E7
:1013C200ACBE1200948C1200ACA2FED702C0F6FF93
:1013D20003C0F7FFF86A070EF76403D00800F55060
:1013E20002D0DCEC08F0DAEC0AF00250046E035092
:1013F200056E024A032A04C0F6FF05C0F7FFF86A29
:10140200070EF76403D00800F55002D0DCEC08F0B8
:101412000009DAE11200056A066A035004101BE0B3
:10142200010E076E04D0D89003360436072A04AEA4
:10143200FAD7D890053606360350015C045002589C
:1014420005E30350015E0450025A0580D89004322D
:101452000332072EEED705C001F006C002F01200DB
:10146200026E02C0C9FFC6BE1200C6500F0B080AA8
:101472000AE0C6500F0B0B0A06E0C6889EA6FED7EE
:10148200C7A4C7501200C6500F0B080A05E0C65089
:101492000F0B0B0AD8A41200C7B0FED7E3EC0AF078
:1014A200C55012000A500B1017E0010E0C6E04D04A
:1014B200D8900A360B360C2A0BAEFAD70A50085CC3
:1014C2000B50095804E30A50085E0B50095AD89091
:1014D2000B320A320C2EF2D708C008F009C009F00C
:1014E200120083A21200346A010E336E10D083B24E
:1014F2000ED0354A362A336A346A030E351836104E
:1015020003E1366A010E356E010ED1EC06F03304AA
:101512003410EDE01200C580C5B0FED7E3EC0AF04E
:10152200115031EC0AF0E3EC0AF0135031EC0AF0FE
:10153200E3EC0AF0155031EC0AF0C584C5A41200A0
:10154200FDD701500302F3CF05F0F4CF06F00150AE
:101552000402F350062602500302F350062605C089
:1015620001F006C002F01200026E3F0EC716C66AF4
:10157200C56A0250C6120150C71293829380C68A6E
:101582001200C6500F0B080A04E0C6500F0B0B0ADC
:1015920001E1C586C7A0FED7C950120000EE25F0B2
:1015A200210EEE6AE806FDE1000EF86E000149EF39
:1015B20007F0016EACAC03D0AC9039B2AC8001C084
:1015C200ADFF1200C5CF01F01F0E0116FBE1C7A44B
:0415D2001F0CF8D71B
:020000040020DA
:08000000FFFFFFFFFFFFFFFF00
:020000040030CA
:0E000000030C1F1EFF8081FF0FC00FE00F409A
:00000001FF
